{
  "_format": "hh-sol-artifact-1",
  "contractName": "Marketplace",
  "sourceName": "contracts/Marketplace.sol",
  "abi": [
    {
      "anonymous": false,
      "inputs": [
        {
          "indexed": true,
          "internalType": "address",
          "name": "previousOwner",
          "type": "address"
        },
        {
          "indexed": true,
          "internalType": "address",
          "name": "newOwner",
          "type": "address"
        }
      ],
      "name": "OwnershipTransferred",
      "type": "event"
    },
    {
      "anonymous": false,
      "inputs": [
        {
          "indexed": false,
          "internalType": "address",
          "name": "nftAddress",
          "type": "address"
        },
        {
          "indexed": false,
          "internalType": "address",
          "name": "seller",
          "type": "address"
        },
        {
          "indexed": false,
          "internalType": "uint256",
          "name": "tokenid",
          "type": "uint256"
        },
        {
          "indexed": false,
          "internalType": "uint256",
          "name": "tokenPrice",
          "type": "uint256"
        },
        {
          "indexed": false,
          "internalType": "uint256",
          "name": "duration",
          "type": "uint256"
        }
      ],
      "name": "TokenListed",
      "type": "event"
    },
    {
      "inputs": [
        {
          "internalType": "address",
          "name": "_nftContractAddress",
          "type": "address"
        },
        {
          "internalType": "uint256",
          "name": "_tokenId",
          "type": "uint256"
        },
        {
          "internalType": "address",
          "name": "_erc20TokenAddress",
          "type": "address"
        },
        {
          "internalType": "uint256",
          "name": "offerIndex",
          "type": "uint256"
        }
      ],
      "name": "acceptOffer",
      "outputs": [],
      "stateMutability": "nonpayable",
      "type": "function"
    },
    {
      "inputs": [
        {
          "internalType": "address",
          "name": "erc20Token",
          "type": "address"
        },
        {
          "internalType": "uint256",
          "name": "index",
          "type": "uint256"
        }
      ],
      "name": "addToken",
      "outputs": [],
      "stateMutability": "nonpayable",
      "type": "function"
    },
    {
      "inputs": [
        {
          "internalType": "uint256",
          "name": "",
          "type": "uint256"
        }
      ],
      "name": "allowedTokens",
      "outputs": [
        {
          "internalType": "address",
          "name": "erc20Token",
          "type": "address"
        },
        {
          "internalType": "bool",
          "name": "isAllowed",
          "type": "bool"
        }
      ],
      "stateMutability": "view",
      "type": "function"
    },
    {
      "inputs": [
        {
          "internalType": "address",
          "name": "_nftContractAddress",
          "type": "address"
        },
        {
          "internalType": "uint256",
          "name": "_tokenId",
          "type": "uint256"
        }
      ],
      "name": "cancelListing",
      "outputs": [],
      "stateMutability": "nonpayable",
      "type": "function"
    },
    {
      "inputs": [
        {
          "internalType": "address payable",
          "name": "_newRoyaltyAddress",
          "type": "address"
        }
      ],
      "name": "changeRoyaltyWallet",
      "outputs": [],
      "stateMutability": "nonpayable",
      "type": "function"
    },
    {
      "inputs": [
        {
          "internalType": "address",
          "name": "_nftContractAddress",
          "type": "address"
        },
        {
          "internalType": "uint256",
          "name": "_tokenId",
          "type": "uint256"
        }
      ],
      "name": "createSale",
      "outputs": [],
      "stateMutability": "payable",
      "type": "function"
    },
    {
      "inputs": [
        {
          "internalType": "address",
          "name": "_nftContractAddress",
          "type": "address"
        },
        {
          "internalType": "uint256",
          "name": "_tokenId",
          "type": "uint256"
        },
        {
          "internalType": "address",
          "name": "_erc20TokenAddress",
          "type": "address"
        }
      ],
      "name": "getOffers",
      "outputs": [
        {
          "components": [
            {
              "internalType": "uint256",
              "name": "_offerPrice",
              "type": "uint256"
            },
            {
              "internalType": "uint256",
              "name": "_offerEndDuration",
              "type": "uint256"
            },
            {
              "internalType": "address",
              "name": "offerer",
              "type": "address"
            }
          ],
          "internalType": "struct Offer[]",
          "name": "",
          "type": "tuple[]"
        }
      ],
      "stateMutability": "view",
      "type": "function"
    },
    {
      "inputs": [
        {
          "internalType": "address",
          "name": "_nftContractAddress",
          "type": "address"
        },
        {
          "internalType": "uint256",
          "name": "_tokenId",
          "type": "uint256"
        },
        {
          "internalType": "uint256",
          "name": "_price",
          "type": "uint256"
        },
        {
          "internalType": "uint256",
          "name": "_duration",
          "type": "uint256"
        }
      ],
      "name": "listToken",
      "outputs": [],
      "stateMutability": "nonpayable",
      "type": "function"
    },
    {
      "inputs": [
        {
          "internalType": "address",
          "name": "",
          "type": "address"
        },
        {
          "internalType": "uint256",
          "name": "",
          "type": "uint256"
        }
      ],
      "name": "lists",
      "outputs": [
        {
          "internalType": "uint256",
          "name": "sellPrice",
          "type": "uint256"
        },
        {
          "internalType": "address",
          "name": "owner",
          "type": "address"
        },
        {
          "internalType": "uint256",
          "name": "duration",
          "type": "uint256"
        }
      ],
      "stateMutability": "view",
      "type": "function"
    },
    {
      "inputs": [
        {
          "internalType": "address",
          "name": "_nftContractAddress",
          "type": "address"
        },
        {
          "internalType": "uint256",
          "name": "_tokenId",
          "type": "uint256"
        },
        {
          "internalType": "uint256",
          "name": "_tokenIndex",
          "type": "uint256"
        },
        {
          "internalType": "uint256",
          "name": "_offerPrice",
          "type": "uint256"
        },
        {
          "internalType": "uint256",
          "name": "_offerDuration",
          "type": "uint256"
        }
      ],
      "name": "offerNFT",
      "outputs": [],
      "stateMutability": "nonpayable",
      "type": "function"
    },
    {
      "inputs": [],
      "name": "owner",
      "outputs": [
        {
          "internalType": "address",
          "name": "",
          "type": "address"
        }
      ],
      "stateMutability": "view",
      "type": "function"
    },
    {
      "inputs": [],
      "name": "renounceOwnership",
      "outputs": [],
      "stateMutability": "nonpayable",
      "type": "function"
    },
    {
      "inputs": [],
      "name": "royaltyWallet",
      "outputs": [
        {
          "internalType": "address payable",
          "name": "",
          "type": "address"
        }
      ],
      "stateMutability": "view",
      "type": "function"
    },
    {
      "inputs": [
        {
          "internalType": "address",
          "name": "newOwner",
          "type": "address"
        }
      ],
      "name": "transferOwnership",
      "outputs": [],
      "stateMutability": "nonpayable",
      "type": "function"
    },
    {
      "inputs": [
        {
          "internalType": "address",
          "name": "_nftContractAddress",
          "type": "address"
        },
        {
          "internalType": "uint256",
          "name": "_tokenId",
          "type": "uint256"
        },
        {
          "internalType": "uint128",
          "name": "_newBuyPrice",
          "type": "uint128"
        }
      ],
      "name": "updateBuyPrice",
      "outputs": [],
      "stateMutability": "nonpayable",
      "type": "function"
    }
  ],
  "bytecode": "0x608060405234801561001057600080fd5b5061001a3361001f565b61006f565b600080546001600160a01b038381166001600160a01b0319831681178455604051919092169283917f8be0079c531659141344cd1fd0a4f28419497f9722a3daafe3b4186f6b6457e09190a35050565b6116a68061007e6000396000f3fe6080604052600436106100e85760003560e01c80639c499af21161008a578063b43d901d11610059578063b43d901d146102c1578063c50a2def146102e1578063e6a7256814610353578063f2fde38b1461037357600080fd5b80639c499af21461024e578063af81c5b91461026e578063b2ddee061461028e578063b3643e3a146102ae57600080fd5b80633f0d2ec1116100c65780633f0d2ec1146101825780635e5f2e26146101ba578063715018a61461021b5780638da5cb5b1461023057600080fd5b80631c91f435146100ed57806320d126991461012c57806329e0e16014610162575b600080fd5b3480156100f957600080fd5b5061012a6101083660046112c3565b600480546001600160a01b0319166001600160a01b0392909216919091179055565b005b34801561013857600080fd5b5061014c61014736600461132d565b610393565b60405161015991906114cf565b60405180910390f35b34801561016e57600080fd5b5061012a61017d36600461136e565b610533565b34801561018e57600080fd5b506004546101a2906001600160a01b031681565b6040516001600160a01b039091168152602001610159565b3480156101c657600080fd5b506101fc6101d5366004611493565b6003602052600090815260409020546001600160a01b03811690600160a01b900460ff1682565b604080516001600160a01b039093168352901515602083015201610159565b34801561022757600080fd5b5061012a6105da565b34801561023c57600080fd5b506000546001600160a01b03166101a2565b34801561025a57600080fd5b5061012a6102693660046113b5565b610619565b34801561027a57600080fd5b5061012a610289366004611302565b610745565b34801561029a57600080fd5b5061012a6102a9366004611302565b610822565b61012a6102bc366004611302565b6108de565b3480156102cd57600080fd5b5061012a6102dc3660046113f6565b610abc565b3480156102ed57600080fd5b506103306102fc366004611302565b600160208181526000938452604080852090915291835291208054918101546002909101546001600160a01b039091169083565b604080519384526001600160a01b03909216602084015290820152606001610159565b34801561035f57600080fd5b5061012a61036e366004611430565b610c49565b34801561037f57600080fd5b5061012a61038e3660046112c3565b610d69565b6001600160a01b03838116600090815260026020908152604080832086845282528083209385168352929052908120546060918167ffffffffffffffff8111156103ed57634e487b7160e01b600052604160045260246000fd5b60405190808252806020026020018201604052801561044b57816020015b6104386040518060600160405280600081526020016000815260200160006001600160a01b031681525090565b81526020019060019003908161040b5790505b50905060005b82811015610529576001600160a01b0380881660009081526002602090815260408083208a845282528083209389168352929052208054829081106104a657634e487b7160e01b600052603260045260246000fd5b6000918252602091829020604080516060810182526003909302909101805483526001810154938301939093526002909201546001600160a01b031691810191909152825183908390811061050b57634e487b7160e01b600052603260045260246000fd5b602002602001018190525080806105219061162a565b915050610451565b5095945050505050565b6001600160a01b0380851660009081526002602090815260408083208784528252808320938616835292905290812080548390811061058257634e487b7160e01b600052603260045260246000fd5b6000918252602091829020604080516060810182526003909302909101805483526001810154938301939093526002909201546001600160a01b03169181019190915290506105d385858584610e04565b5050505050565b6000546001600160a01b0316331461060d5760405162461bcd60e51b815260040161060490611561565b60405180910390fd5b6106176000610eb1565b565b6040516331a9108f60e11b815260048101839052839083906001600160a01b03831690636352211e9060240160206040518083038186803b15801561065d57600080fd5b505afa158015610671573d6000803e3d6000fd5b505050506040513d601f19601f8201168201806040525081019061069591906112e6565b6001600160a01b0316336001600160a01b0316146106c55760405162461bcd60e51b815260040161060490611531565b6001600160a01b038516600090815260016020908152604080832087845290915290206002015485908590421061070e5760405162461bcd60e51b815260040161060490611596565b505050506001600160a01b03929092166000908152600160209081526040808320938352929052206001600160801b039091169055565b6000546001600160a01b0316331461076f5760405162461bcd60e51b815260040161060490611561565b6000818152600360205260409020546001600160a01b0316156107cd5760405162461bcd60e51b8152602060048201526016602482015275151bdad95b88105b1c9958591e48105cdcda59db995960521b6044820152606401610604565b6040805180820182526001600160a01b03938416815260016020808301918252600094855260039052919092209151825491511515600160a01b026001600160a81b0319909216931692909217919091179055565b6040516331a9108f60e11b815260048101829052829082906001600160a01b03831690636352211e9060240160206040518083038186803b15801561086657600080fd5b505afa15801561087a573d6000803e3d6000fd5b505050506040513d601f19601f8201168201806040525081019061089e91906112e6565b6001600160a01b0316336001600160a01b0316146108ce5760405162461bcd60e51b815260040161060490611531565b6108d88484610f01565b50505050565b6040516331a9108f60e11b815260048101829052829082906001600160a01b03831690636352211e9060240160206040518083038186803b15801561092257600080fd5b505afa158015610936573d6000803e3d6000fd5b505050506040513d601f19601f8201168201806040525081019061095a91906112e6565b6001600160a01b0316336001600160a01b031614156109bb5760405162461bcd60e51b815260206004820152601b60248201527f4f776e65722063616e6e6f7420627579206f6e206f776e204e465400000000006044820152606401610604565b6001600160a01b0384166000908152600160209081526040808320868452909152902060020154849084904210610a045760405162461bcd60e51b815260040161060490611596565b6001600160a01b0380871660009081526001602081815260408084208a85528252928390208351606081018552815480825293820154909516918501919091526002015491830191909152341015610a9e5760405162461bcd60e51b815260206004820152601960248201527f496e53756666696369656e742042616c616e63652053656e64000000000000006044820152606401610604565b610ab38782600001518360200151338a610f43565b50505050505050565b6040516331a9108f60e11b815260048101849052849084906001600160a01b03831690636352211e9060240160206040518083038186803b158015610b0057600080fd5b505afa158015610b14573d6000803e3d6000fd5b505050506040513d601f19601f82011682018060405250810190610b3891906112e6565b6001600160a01b0316336001600160a01b031614610b685760405162461bcd60e51b815260040161060490611531565b60408051606081018252858152336020820152908101610b8885426115bc565b90526001600160a01b0387811660009081526001602081815260408084208b8552825292839020855181559085015191810180546001600160a01b031916929094169190911790925591909101516002909101557f7d5e9f7d0176f6d89418aff63d46085abc93fe2052915f849d66d8f7d168bb3c86338787610c0b88426115bc565b604080516001600160a01b039687168152959094166020860152928401919091526060830152608082015260a00160405180910390a1505050505050565b600083815260036020526040902054600160a01b900460ff16610cba5760405162461bcd60e51b8152602060048201526024808201527f4e6f7420416c6c6f77656420546f20547261646520576974682054686973205460448201526337b5b2b760e11b6064820152608401610604565b6000838152600360205260409020546105d390869086906001600160a01b031685610ce586426115bc565b6001600160a01b039485166000908152600260208181526040808420978452968152868320958816835294855285822086516060810188529485528486019384523396850196875280546001808201835591845295909220935160039095029093019384559051908301559151910180546001600160a01b03191691909216179055565b6000546001600160a01b03163314610d935760405162461bcd60e51b815260040161060490611561565b6001600160a01b038116610df85760405162461bcd60e51b815260206004820152602660248201527f4f776e61626c653a206e6577206f776e657220697320746865207a65726f206160448201526564647265737360d01b6064820152608401610604565b610e0181610eb1565b50565b80610e128160200151421090565b610e2e5760405162461bcd60e51b815260040161060490611596565b610e418260400151848460000151611074565b60408083015190516323b872dd60e01b81526001600160a01b038716916323b872dd91610e7491339189906004016114ab565b600060405180830381600087803b158015610e8e57600080fd5b505af1158015610ea2573d6000803e3d6000fd5b505050506105d38585856111a3565b600080546001600160a01b038381166001600160a01b0319831681178455604051919092169283917f8be0079c531659141344cd1fd0a4f28419497f9722a3daafe3b4186f6b6457e09190a35050565b6001600160a01b0391909116600090815260016020818152604080842094845293905291812081815591820180546001600160a01b0319169055600290910155565b848382826001600160a01b0316636352211e826040518263ffffffff1660e01b8152600401610f7491815260200190565b60206040518083038186803b158015610f8c57600080fd5b505afa158015610fa0573d6000803e3d6000fd5b505050506040513d601f19601f82011682018060405250810190610fc491906112e6565b6001600160a01b0316826001600160a01b031614610ff45760405162461bcd60e51b815260040161060490611531565b610ffe87876111e0565b6040516323b872dd60e01b81526001600160a01b038916906323b872dd9061102e908990899089906004016114ab565b600060405180830381600087803b15801561104857600080fd5b505af115801561105c573d6000803e3d6000fd5b5050505061106a8885610f01565b5050505050505050565b60006103e86110848360196115f4565b61108e91906115d4565b90506001600160a01b0383166323b872dd85336110ab8587611613565b6040518463ffffffff1660e01b81526004016110c9939291906114ab565b602060405180830381600087803b1580156110e357600080fd5b505af11580156110f7573d6000803e3d6000fd5b505050506040513d601f19601f8201168201806040525081019061111b9190611473565b50600480546040516323b872dd60e01b81526001600160a01b03868116936323b872dd93611151938a93909116918791016114ab565b602060405180830381600087803b15801561116b57600080fd5b505af115801561117f573d6000803e3d6000fd5b505050506040513d601f19601f820116820180604052508101906105d39190611473565b6001600160a01b038084166000908152600260209081526040808320868452825280832093851683529290529081206111db91611276565b505050565b60006103e86111f08460196115f4565b6111fa91906115d4565b90506001600160a01b0382166108fc6112138386611613565b6040518115909202916000818181858888f1935050505015801561123b573d6000803e3d6000fd5b506004546040516001600160a01b039091169082156108fc029083906000818181858888f193505050501580156108d8573d6000803e3d6000fd5b5080546000825560030290600052602060002090810190610e0191905b808211156112bf57600080825560018201556002810180546001600160a01b0319169055600301611293565b5090565b6000602082840312156112d4578081fd5b81356112df8161165b565b9392505050565b6000602082840312156112f7578081fd5b81516112df8161165b565b60008060408385031215611314578081fd5b823561131f8161165b565b946020939093013593505050565b600080600060608486031215611341578081fd5b833561134c8161165b565b92506020840135915060408401356113638161165b565b809150509250925092565b60008060008060808587031215611383578081fd5b843561138e8161165b565b93506020850135925060408501356113a58161165b565b9396929550929360600135925050565b6000806000606084860312156113c9578283fd5b83356113d48161165b565b92506020840135915060408401356001600160801b0381168114611363578182fd5b6000806000806080858703121561140b578384fd5b84356114168161165b565b966020860135965060408601359560600135945092505050565b600080600080600060a08688031215611447578081fd5b85356114528161165b565b97602087013597506040870135966060810135965060800135945092505050565b600060208284031215611484578081fd5b815180151581146112df578182fd5b6000602082840312156114a4578081fd5b5035919050565b6001600160a01b039384168152919092166020820152604081019190915260600190565b602080825282518282018190526000919060409081850190868401855b828110156115245781518051855286810151878601528501516001600160a01b031685850152606090930192908501906001016114ec565b5091979650505050505050565b60208082526016908201527514d95b99195c88191bd95cdb89dd081bdddb8813919560521b604082015260600190565b6020808252818101527f4f776e61626c653a2063616c6c6572206973206e6f7420746865206f776e6572604082015260600190565b6020808252600c908201526b29b0b6329034b99027bb32b960a11b604082015260600190565b600082198211156115cf576115cf611645565b500190565b6000826115ef57634e487b7160e01b81526012600452602481fd5b500490565b600081600019048311821515161561160e5761160e611645565b500290565b60008282101561162557611625611645565b500390565b600060001982141561163e5761163e611645565b5060010190565b634e487b7160e01b600052601160045260246000fd5b6001600160a01b0381168114610e0157600080fdfea2646970667358221220bbe97e951b05e74ec8607b39e998024925a22fe2ab56f2bd2d54edd18dbca4e464736f6c63430008040033",
  "linkReferences": {},
  "deployedLinkReferences": {}
}