{
  "_format": "hh-sol-artifact-1",
  "contractName": "Marketplace",
  "sourceName": "contracts/ERC1155MarketPlace.sol",
  "abi": [
    {
      "anonymous": false,
      "inputs": [
        {
          "indexed": true,
          "internalType": "address",
          "name": "previousOwner",
          "type": "address"
        },
        {
          "indexed": true,
          "internalType": "address",
          "name": "newOwner",
          "type": "address"
        }
      ],
      "name": "OwnershipTransferred",
      "type": "event"
    },
    {
      "inputs": [
        {
          "internalType": "address",
          "name": "_erc1155Address",
          "type": "address"
        },
        {
          "internalType": "uint256",
          "name": "_tokenId",
          "type": "uint256"
        },
        {
          "internalType": "uint256",
          "name": "listIndex",
          "type": "uint256"
        }
      ],
      "name": "createSale",
      "outputs": [],
      "stateMutability": "nonpayable",
      "type": "function"
    },
    {
      "inputs": [
        {
          "internalType": "address",
          "name": "_erc1155Address",
          "type": "address"
        },
        {
          "internalType": "uint256",
          "name": "_tokenId",
          "type": "uint256"
        }
      ],
      "name": "getLists",
      "outputs": [
        {
          "components": [
            {
              "internalType": "uint256",
              "name": "sellPrice",
              "type": "uint256"
            },
            {
              "internalType": "address",
              "name": "owner",
              "type": "address"
            },
            {
              "internalType": "uint256",
              "name": "duration",
              "type": "uint256"
            }
          ],
          "internalType": "struct List[]",
          "name": "",
          "type": "tuple[]"
        }
      ],
      "stateMutability": "view",
      "type": "function"
    },
    {
      "inputs": [
        {
          "internalType": "address",
          "name": "_erc1155Address",
          "type": "address"
        },
        {
          "internalType": "uint256",
          "name": "_tokenId",
          "type": "uint256"
        },
        {
          "internalType": "uint256",
          "name": "_price",
          "type": "uint256"
        },
        {
          "internalType": "uint256",
          "name": "_duration",
          "type": "uint256"
        }
      ],
      "name": "listERC1155",
      "outputs": [],
      "stateMutability": "nonpayable",
      "type": "function"
    },
    {
      "inputs": [],
      "name": "owner",
      "outputs": [
        {
          "internalType": "address",
          "name": "",
          "type": "address"
        }
      ],
      "stateMutability": "view",
      "type": "function"
    },
    {
      "inputs": [],
      "name": "renounceOwnership",
      "outputs": [],
      "stateMutability": "nonpayable",
      "type": "function"
    },
    {
      "inputs": [],
      "name": "royaltyWallet",
      "outputs": [
        {
          "internalType": "address payable",
          "name": "",
          "type": "address"
        }
      ],
      "stateMutability": "view",
      "type": "function"
    },
    {
      "inputs": [
        {
          "internalType": "address",
          "name": "newOwner",
          "type": "address"
        }
      ],
      "name": "transferOwnership",
      "outputs": [],
      "stateMutability": "nonpayable",
      "type": "function"
    }
  ],
  "bytecode": "0x608060405234801561001057600080fd5b5061001a3361001f565b61006f565b600080546001600160a01b038381166001600160a01b0319831681178455604051919092169283917f8be0079c531659141344cd1fd0a4f28419497f9722a3daafe3b4186f6b6457e09190a35050565b61076e8061007e6000396000f3fe608060405234801561001057600080fd5b506004361061007d5760003560e01c80638da5cb5b1161005b5780638da5cb5b146100e05780639f161af2146100f1578063e8d9b52f14610104578063f2fde38b1461011757600080fd5b80632c2b977e146100825780633f0d2ec1146100ab578063715018a6146100d6575b600080fd5b61009561009036600461061c565b61012a565b6040516100a291906106af565b60405180910390f35b6002546100be906001600160a01b031681565b6040516001600160a01b0390911681526020016100a2565b6100de6102b3565b005b6000546001600160a01b03166100be565b6100de6100ff366004610645565b61031e565b6100de610112366004610677565b6103b7565b6100de6101253660046105fb565b610436565b6001600160a01b03821660009081526001602090815260408083208484529091528120546060918167ffffffffffffffff81111561017857634e487b7160e01b600052604160045260246000fd5b6040519080825280602002602001820160405280156101d657816020015b6101c360405180606001604052806000815260200160006001600160a01b03168152602001600081525090565b8152602001906001900390816101965790505b50905060005b828110156102aa576001600160a01b0386166000908152600160209081526040808320888452909152902080548290811061022757634e487b7160e01b600052603260045260246000fd5b60009182526020918290206040805160608101825260039093029091018054835260018101546001600160a01b03169383019390935260029092015491810191909152825183908390811061028c57634e487b7160e01b600052603260045260246000fd5b602002602001018190525080806102a290610711565b9150506101dc565b50949350505050565b6000546001600160a01b031633146103125760405162461bcd60e51b815260206004820181905260248201527f4f776e61626c653a2063616c6c6572206973206e6f7420746865206f776e657260448201526064015b60405180910390fd5b61031c6000610501565b565b6001600160a01b0383166000908152600160209081526040808320858452909152812080548390811061036157634e487b7160e01b600052603260045260246000fd5b60009182526020918290206040805160608101825260039093029091018054835260018101546001600160a01b0316938301939093526002909201549181019190915290506103b1848483610551565b50505050565b6001600160a01b03808516600090815260016020818152604080842088855282528084208151606081018352888152338185019081529281018881528254808701845592875293909520945160039091029094019384555191830180546001600160a01b031916929094169190911790925590516002909101556103b1565b6000546001600160a01b031633146104905760405162461bcd60e51b815260206004820181905260248201527f4f776e61626c653a2063616c6c6572206973206e6f7420746865206f776e65726044820152606401610309565b6001600160a01b0381166104f55760405162461bcd60e51b815260206004820152602660248201527f4f776e61626c653a206e6577206f776e657220697320746865207a65726f206160448201526564647265737360d01b6064820152608401610309565b6104fe81610501565b50565b600080546001600160a01b038381166001600160a01b0319831681178455604051919092169283917f8be0079c531659141344cd1fd0a4f28419497f9722a3daafe3b4186f6b6457e09190a35050565b6020810151604051637921219560e11b81526001600160a01b039182166004820152336024820152604481018490526001606482015260a06084820152600060a48201529084169063f242432a9060c401600060405180830381600087803b1580156105bc57600080fd5b505af11580156105d0573d6000803e3d6000fd5b506105da92505050565b505050565b80356001600160a01b03811681146105f657600080fd5b919050565b60006020828403121561060c578081fd5b610615826105df565b9392505050565b6000806040838503121561062e578081fd5b610637836105df565b946020939093013593505050565b600080600060608486031215610659578081fd5b610662846105df565b95602085013595506040909401359392505050565b6000806000806080858703121561068c578081fd5b610695856105df565b966020860135965060408601359560600135945092505050565b602080825282518282018190526000919060409081850190868401855b8281101561070457815180518552868101516001600160a01b03168786015285015185850152606090930192908501906001016106cc565b5091979650505050505050565b600060001982141561073157634e487b7160e01b81526011600452602481fd5b506001019056fea264697066735822122075037cd0d144ea641f898b258eb04fe6ea4e19e00297276198b580d30f20b60e64736f6c63430008040033",
  "linkReferences": {},
  "deployedLinkReferences": {}
}