{
  "_format": "hh-sol-artifact-1",
  "contractName": "NFTAuction",
  "sourceName": "contracts/NFTAuction.sol",
  "abi": [
    {
      "anonymous": false,
      "inputs": [
        {
          "indexed": true,
          "internalType": "address",
          "name": "previousOwner",
          "type": "address"
        },
        {
          "indexed": true,
          "internalType": "address",
          "name": "newOwner",
          "type": "address"
        }
      ],
      "name": "OwnershipTransferred",
      "type": "event"
    },
    {
      "inputs": [
        {
          "internalType": "address",
          "name": "_nftContractAddress",
          "type": "address"
        },
        {
          "internalType": "uint256",
          "name": "_tokenId",
          "type": "uint256"
        },
        {
          "internalType": "address",
          "name": "_erc20TokenAddress",
          "type": "address"
        },
        {
          "internalType": "uint256",
          "name": "offerIndex",
          "type": "uint256"
        }
      ],
      "name": "acceptOffer",
      "outputs": [],
      "stateMutability": "nonpayable",
      "type": "function"
    },
    {
      "inputs": [
        {
          "internalType": "address",
          "name": "erc20Token",
          "type": "address"
        },
        {
          "internalType": "uint256",
          "name": "index",
          "type": "uint256"
        }
      ],
      "name": "addToken",
      "outputs": [],
      "stateMutability": "nonpayable",
      "type": "function"
    },
    {
      "inputs": [
        {
          "internalType": "uint256",
          "name": "",
          "type": "uint256"
        }
      ],
      "name": "allowedTokens",
      "outputs": [
        {
          "internalType": "address",
          "name": "erc20Token",
          "type": "address"
        },
        {
          "internalType": "bool",
          "name": "isAllowed",
          "type": "bool"
        }
      ],
      "stateMutability": "view",
      "type": "function"
    },
    {
      "inputs": [
        {
          "internalType": "address",
          "name": "_nftContractAddress",
          "type": "address"
        },
        {
          "internalType": "uint256",
          "name": "_tokenId",
          "type": "uint256"
        },
        {
          "internalType": "address",
          "name": "_erc20TokenAddress",
          "type": "address"
        }
      ],
      "name": "getOffers",
      "outputs": [
        {
          "components": [
            {
              "internalType": "uint256",
              "name": "_offerPrice",
              "type": "uint256"
            },
            {
              "internalType": "uint256",
              "name": "_offerEndDuration",
              "type": "uint256"
            },
            {
              "internalType": "address",
              "name": "offerer",
              "type": "address"
            }
          ],
          "internalType": "struct Offer[]",
          "name": "",
          "type": "tuple[]"
        }
      ],
      "stateMutability": "view",
      "type": "function"
    },
    {
      "inputs": [
        {
          "internalType": "address",
          "name": "_nftContractAddress",
          "type": "address"
        },
        {
          "internalType": "uint256",
          "name": "_tokenId",
          "type": "uint256"
        },
        {
          "internalType": "uint256",
          "name": "_tokenIndex",
          "type": "uint256"
        },
        {
          "internalType": "uint256",
          "name": "_offerPrice",
          "type": "uint256"
        },
        {
          "internalType": "uint256",
          "name": "_offerDuration",
          "type": "uint256"
        }
      ],
      "name": "offerNFT",
      "outputs": [],
      "stateMutability": "nonpayable",
      "type": "function"
    },
    {
      "inputs": [],
      "name": "owner",
      "outputs": [
        {
          "internalType": "address",
          "name": "",
          "type": "address"
        }
      ],
      "stateMutability": "view",
      "type": "function"
    },
    {
      "inputs": [],
      "name": "renounceOwnership",
      "outputs": [],
      "stateMutability": "nonpayable",
      "type": "function"
    },
    {
      "inputs": [],
      "name": "royaltyWallet",
      "outputs": [
        {
          "internalType": "address payable",
          "name": "",
          "type": "address"
        }
      ],
      "stateMutability": "view",
      "type": "function"
    },
    {
      "inputs": [
        {
          "internalType": "address",
          "name": "newOwner",
          "type": "address"
        }
      ],
      "name": "transferOwnership",
      "outputs": [],
      "stateMutability": "nonpayable",
      "type": "function"
    }
  ],
  "bytecode": "0x608060405234801561001057600080fd5b5061001a3361001f565b61006f565b600080546001600160a01b038381166001600160a01b0319831681178455604051919092169283917f8be0079c531659141344cd1fd0a4f28419497f9722a3daafe3b4186f6b6457e09190a35050565b610ae98061007e6000396000f3fe608060405234801561001057600080fd5b50600436106100935760003560e01c8063715018a611610066578063715018a6146101555780638da5cb5b1461015d578063af81c5b91461016e578063e6a7256814610181578063f2fde38b1461019457600080fd5b806320d126991461009857806329e0e160146100c15780633f0d2ec1146100d65780635e5f2e2614610101575b600080fd5b6100ab6100a6366004610886565b6101a7565b6040516100b8919061097d565b60405180910390f35b6100d46100cf3660046108c1565b610347565b005b6002546100e9906001600160a01b031681565b6040516001600160a01b0390911681526020016100b8565b61013661010f366004610965565b6003602052600090815260409020546001600160a01b03811690600160a01b900460ff1682565b604080516001600160a01b0390931683529015156020830152016100b8565b6100d46103ee565b6000546001600160a01b03166100e9565b6100d461017c36600461085d565b61042d565b6100d461018f366004610904565b6104ac565b6100d46101a236600461083c565b61055b565b6001600160a01b03838116600090815260016020908152604080832086845282528083209385168352929052908120546060918167ffffffffffffffff81111561020157634e487b7160e01b600052604160045260246000fd5b60405190808252806020026020018201604052801561025f57816020015b61024c6040518060600160405280600081526020016000815260200160006001600160a01b031681525090565b81526020019060019003908161021f5790505b50905060005b8281101561033d576001600160a01b0380881660009081526001602090815260408083208a845282528083209389168352929052208054829081106102ba57634e487b7160e01b600052603260045260246000fd5b6000918252602091829020604080516060810182526003909302909101805483526001810154938301939093526002909201546001600160a01b031691810191909152825183908390811061031f57634e487b7160e01b600052603260045260246000fd5b6020026020010181905250808061033590610a82565b915050610265565b5095945050505050565b6001600160a01b0380851660009081526001602090815260408083208784528252808320938616835292905290812080548390811061039657634e487b7160e01b600052603260045260246000fd5b6000918252602091829020604080516060810182526003909302909101805483526001810154938301939093526002909201546001600160a01b03169181019190915290506103e7858585846105f6565b5050505050565b6000546001600160a01b031633146104215760405162461bcd60e51b8152600401610418906109df565b60405180910390fd5b61042b6000610688565b565b6000546001600160a01b031633146104575760405162461bcd60e51b8152600401610418906109df565b6040805180820182526001600160a01b03938416815260016020808301918252600094855260039052919092209151825491511515600160a01b026001600160a81b0319909216931692909217919091179055565b6000838152600360205260409020546103e790869086906001600160a01b0316856104d78642610a14565b6001600160a01b039485166000908152600160208181526040808420978452968152868320958816835294855285822086516060810188529485528486019384523396850196875280548083018255908352949091209251600390940290920192835551908201559051600290910180546001600160a01b03191691909216179055565b6000546001600160a01b031633146105855760405162461bcd60e51b8152600401610418906109df565b6001600160a01b0381166105ea5760405162461bcd60e51b815260206004820152602660248201527f4f776e61626c653a206e6577206f776e657220697320746865207a65726f206160448201526564647265737360d01b6064820152608401610418565b6105f381610688565b50565b61060981604001518383600001516106d8565b60408181015190516323b872dd60e01b81523360048201526001600160a01b03918216602482015260448101859052908516906323b872dd90606401600060405180830381600087803b15801561065f57600080fd5b505af1158015610673573d6000803e3d6000fd5b50505050610682848484610796565b50505050565b600080546001600160a01b038381166001600160a01b0319831681178455604051919092169283917f8be0079c531659141344cd1fd0a4f28419497f9722a3daafe3b4186f6b6457e09190a35050565b60006103e86106e8836019610a4c565b6106f29190610a2c565b90506001600160a01b0383166323b872dd853361070f8587610a6b565b6040516001600160e01b031960e086901b1681526001600160a01b0393841660048201529290911660248301526044820152606401602060405180830381600087803b15801561075e57600080fd5b505af1158015610772573d6000803e3d6000fd5b505050506040513d601f19601f820116820180604052508101906103e79190610945565b6001600160a01b038084166000908152600160209081526040808320868452825280832093851683529290529081206107ce916107d3565b505050565b50805460008255600302906000526020600020908101906105f391905b8082111561081c57600080825560018201556002810180546001600160a01b03191690556003016107f0565b5090565b80356001600160a01b038116811461083757600080fd5b919050565b60006020828403121561084d578081fd5b61085682610820565b9392505050565b6000806040838503121561086f578081fd5b61087883610820565b946020939093013593505050565b60008060006060848603121561089a578081fd5b6108a384610820565b9250602084013591506108b860408501610820565b90509250925092565b600080600080608085870312156108d6578081fd5b6108df85610820565b9350602085013592506108f460408601610820565b9396929550929360600135925050565b600080600080600060a0868803121561091b578081fd5b61092486610820565b97602087013597506040870135966060810135965060800135945092505050565b600060208284031215610956578081fd5b81518015158114610856578182fd5b600060208284031215610976578081fd5b5035919050565b602080825282518282018190526000919060409081850190868401855b828110156109d25781518051855286810151878601528501516001600160a01b0316858501526060909301929085019060010161099a565b5091979650505050505050565b6020808252818101527f4f776e61626c653a2063616c6c6572206973206e6f7420746865206f776e6572604082015260600190565b60008219821115610a2757610a27610a9d565b500190565b600082610a4757634e487b7160e01b81526012600452602481fd5b500490565b6000816000190483118215151615610a6657610a66610a9d565b500290565b600082821015610a7d57610a7d610a9d565b500390565b6000600019821415610a9657610a96610a9d565b5060010190565b634e487b7160e01b600052601160045260246000fdfea26469706673582212204039ffdbeb3b82a93954b3e4fdd2b9916437d39ee78b7872e1be6172fa6ee13864736f6c63430008040033",
  "linkReferences": {},
  "deployedLinkReferences": {}
}